{
    "abi": [
        {
            "type": "constructor",
            "inputs": [],
            "stateMutability": "nonpayable"
        },
        {
            "type": "fallback",
            "stateMutability": "payable"
        },
        {
            "type": "receive",
            "stateMutability": "payable"
        },
        {
            "type": "function",
            "name": "FAUCET_AMOUNT",
            "inputs": [],
            "outputs": [
                {
                    "name": "",
                    "type": "uint256",
                    "internalType": "uint256"
                }
            ],
            "stateMutability": "view"
        },
        {
            "type": "function",
            "name": "RATE_LIMIT_DURATION",
            "inputs": [],
            "outputs": [
                {
                    "name": "",
                    "type": "uint256",
                    "internalType": "uint256"
                }
            ],
            "stateMutability": "view"
        },
        {
            "type": "function",
            "name": "batchCheckRateLimit",
            "inputs": [
                {
                    "name": "_users",
                    "type": "address[]",
                    "internalType": "address[]"
                }
            ],
            "outputs": [
                {
                    "name": "canRequest",
                    "type": "bool[]",
                    "internalType": "bool[]"
                },
                {
                    "name": "timeLeft",
                    "type": "uint256[]",
                    "internalType": "uint256[]"
                }
            ],
            "stateMutability": "view"
        },
        {
            "type": "function",
            "name": "canRequestFunds",
            "inputs": [
                {
                    "name": "_user",
                    "type": "address",
                    "internalType": "address"
                }
            ],
            "outputs": [
                {
                    "name": "canRequest",
                    "type": "bool",
                    "internalType": "bool"
                },
                {
                    "name": "timeLeft",
                    "type": "uint256",
                    "internalType": "uint256"
                }
            ],
            "stateMutability": "view"
        },
        {
            "type": "function",
            "name": "drip",
            "inputs": [
                {
                    "name": "_recipient",
                    "type": "address",
                    "internalType": "address payable"
                }
            ],
            "outputs": [],
            "stateMutability": "nonpayable"
        },
        {
            "type": "function",
            "name": "emergencyWithdraw",
            "inputs": [],
            "outputs": [],
            "stateMutability": "nonpayable"
        },
        {
            "type": "function",
            "name": "getBalance",
            "inputs": [],
            "outputs": [
                {
                    "name": "",
                    "type": "uint256",
                    "internalType": "uint256"
                }
            ],
            "stateMutability": "view"
        },
        {
            "type": "function",
            "name": "getFaucetInfo",
            "inputs": [],
            "outputs": [
                {
                    "name": "faucetAmount",
                    "type": "uint256",
                    "internalType": "uint256"
                },
                {
                    "name": "rateLimitDuration",
                    "type": "uint256",
                    "internalType": "uint256"
                },
                {
                    "name": "contractBalance",
                    "type": "uint256",
                    "internalType": "uint256"
                },
                {
                    "name": "isPaused",
                    "type": "bool",
                    "internalType": "bool"
                }
            ],
            "stateMutability": "view"
        },
        {
            "type": "function",
            "name": "lastFaucetTime",
            "inputs": [
                {
                    "name": "",
                    "type": "address",
                    "internalType": "address"
                }
            ],
            "outputs": [
                {
                    "name": "",
                    "type": "uint256",
                    "internalType": "uint256"
                }
            ],
            "stateMutability": "view"
        },
        {
            "type": "function",
            "name": "owner",
            "inputs": [],
            "outputs": [
                {
                    "name": "",
                    "type": "address",
                    "internalType": "address"
                }
            ],
            "stateMutability": "view"
        },
        {
            "type": "function",
            "name": "pause",
            "inputs": [],
            "outputs": [],
            "stateMutability": "nonpayable"
        },
        {
            "type": "function",
            "name": "paused",
            "inputs": [],
            "outputs": [
                {
                    "name": "",
                    "type": "bool",
                    "internalType": "bool"
                }
            ],
            "stateMutability": "view"
        },
        {
            "type": "function",
            "name": "renounceOwnership",
            "inputs": [],
            "outputs": [],
            "stateMutability": "nonpayable"
        },
        {
            "type": "function",
            "name": "transferOwnership",
            "inputs": [
                {
                    "name": "newOwner",
                    "type": "address",
                    "internalType": "address"
                }
            ],
            "outputs": [],
            "stateMutability": "nonpayable"
        },
        {
            "type": "function",
            "name": "unpause",
            "inputs": [],
            "outputs": [],
            "stateMutability": "nonpayable"
        },
        {
            "type": "function",
            "name": "withdraw",
            "inputs": [
                {
                    "name": "_amount",
                    "type": "uint256",
                    "internalType": "uint256"
                }
            ],
            "outputs": [],
            "stateMutability": "nonpayable"
        },
        {
            "type": "event",
            "name": "Drip",
            "inputs": [
                {
                    "name": "recipient",
                    "type": "address",
                    "indexed": true,
                    "internalType": "address"
                },
                {
                    "name": "amount",
                    "type": "uint256",
                    "indexed": false,
                    "internalType": "uint256"
                },
                {
                    "name": "timestamp",
                    "type": "uint256",
                    "indexed": false,
                    "internalType": "uint256"
                }
            ],
            "anonymous": false
        },
        {
            "type": "event",
            "name": "EmergencyPause",
            "inputs": [
                {
                    "name": "owner",
                    "type": "address",
                    "indexed": true,
                    "internalType": "address"
                },
                {
                    "name": "timestamp",
                    "type": "uint256",
                    "indexed": false,
                    "internalType": "uint256"
                }
            ],
            "anonymous": false
        },
        {
            "type": "event",
            "name": "EmergencyUnpause",
            "inputs": [
                {
                    "name": "owner",
                    "type": "address",
                    "indexed": true,
                    "internalType": "address"
                },
                {
                    "name": "timestamp",
                    "type": "uint256",
                    "indexed": false,
                    "internalType": "uint256"
                }
            ],
            "anonymous": false
        },
        {
            "type": "event",
            "name": "FaucetFunded",
            "inputs": [
                {
                    "name": "funder",
                    "type": "address",
                    "indexed": true,
                    "internalType": "address"
                },
                {
                    "name": "amount",
                    "type": "uint256",
                    "indexed": false,
                    "internalType": "uint256"
                },
                {
                    "name": "timestamp",
                    "type": "uint256",
                    "indexed": false,
                    "internalType": "uint256"
                }
            ],
            "anonymous": false
        },
        {
            "type": "event",
            "name": "OwnershipTransferred",
            "inputs": [
                {
                    "name": "previousOwner",
                    "type": "address",
                    "indexed": true,
                    "internalType": "address"
                },
                {
                    "name": "newOwner",
                    "type": "address",
                    "indexed": true,
                    "internalType": "address"
                }
            ],
            "anonymous": false
        },
        {
            "type": "event",
            "name": "Paused",
            "inputs": [
                {
                    "name": "account",
                    "type": "address",
                    "indexed": false,
                    "internalType": "address"
                }
            ],
            "anonymous": false
        },
        {
            "type": "event",
            "name": "Unpaused",
            "inputs": [
                {
                    "name": "account",
                    "type": "address",
                    "indexed": false,
                    "internalType": "address"
                }
            ],
            "anonymous": false
        },
        {
            "type": "event",
            "name": "Withdraw",
            "inputs": [
                {
                    "name": "owner",
                    "type": "address",
                    "indexed": true,
                    "internalType": "address"
                },
                {
                    "name": "amount",
                    "type": "uint256",
                    "indexed": false,
                    "internalType": "uint256"
                },
                {
                    "name": "timestamp",
                    "type": "uint256",
                    "indexed": false,
                    "internalType": "uint256"
                }
            ],
            "anonymous": false
        },
        {
            "type": "error",
            "name": "EnforcedPause",
            "inputs": []
        },
        {
            "type": "error",
            "name": "ExceedsMaxFaucetAmount",
            "inputs": []
        },
        {
            "type": "error",
            "name": "ExpectedPause",
            "inputs": []
        },
        {
            "type": "error",
            "name": "FaucetEmpty",
            "inputs": []
        },
        {
            "type": "error",
            "name": "InsufficientContractBalance",
            "inputs": []
        },
        {
            "type": "error",
            "name": "InvalidRecipient",
            "inputs": []
        },
        {
            "type": "error",
            "name": "OwnableInvalidOwner",
            "inputs": [
                {
                    "name": "owner",
                    "type": "address",
                    "internalType": "address"
                }
            ]
        },
        {
            "type": "error",
            "name": "OwnableUnauthorizedAccount",
            "inputs": [
                {
                    "name": "account",
                    "type": "address",
                    "internalType": "address"
                }
            ]
        },
        {
            "type": "error",
            "name": "RateLimitExceeded",
            "inputs": [
                {
                    "name": "timeLeft",
                    "type": "uint256",
                    "internalType": "uint256"
                }
            ]
        },
        {
            "type": "error",
            "name": "ReentrancyGuardReentrantCall",
            "inputs": []
        },
        {
            "type": "error",
            "name": "TransferFailed",
            "inputs": []
        },
        {
            "type": "error",
            "name": "WithdrawFailed",
            "inputs": []
        }
    ],
    "bytecode": {
        "object": "0x60a060405267016345785d8a000060809081525034801561001f57600080fd5b5033600073ffffffffffffffffffffffffffffffffffffffff168173ffffffffffffffffffffffffffffffffffffffff16036100935760006040517f1e4fbdf700000000000000000000000000000000000000000000000000000000815260040161008a9190610207565b60405180910390fd5b6100a2816100cd60201b60201c565b5060016100c16100b661019160201b60201c565b6101bc60201b60201c565b60000181905550610222565b60008060009054906101000a900473ffffffffffffffffffffffffffffffffffffffff169050816000806101000a81548173ffffffffffffffffffffffffffffffffffffffff021916908373ffffffffffffffffffffffffffffffffffffffff1602179055508173ffffffffffffffffffffffffffffffffffffffff168173ffffffffffffffffffffffffffffffffffffffff167f8be0079c531659141344cd1fd0a4f28419497f9722a3daafe3b4186f6b6457e060405160405180910390a35050565b60007f9b779b17422d0df92223018b32b4d1fa46e071723d6817e2486d003becc55f0060001b905090565b6000819050919050565b600073ffffffffffffffffffffffffffffffffffffffff82169050919050565b60006101f1826101c6565b9050919050565b610201816101e6565b82525050565b600060208201905061021c60008301846101f8565b92915050565b6080516118d761025960003960008181610445015281816107bf015281816108760152818161095801526109b101526118d76000f3fe6080604052600436106100f75760003560e01c8063766976401161008a578063db2e21bc11610059578063db2e21bc14610379578063db7378ec14610390578063edd3f3cf146103ce578063f2fde38b1461040c5761014e565b806376697640146102cf5780637bc1f6cc146102fa5780638456cb59146103375780638da5cb5b1461034e5761014e565b80633f4ba83a116100c65780633f4ba83a1461024d5780635c975abb1461026457806367a5cd061461028f578063715018a6146102b85761014e565b806312065fe0146101a057806314da9253146101cb5780632e1a7d4d146101f957806332ad6268146102225761014e565b3661014e573373ffffffffffffffffffffffffffffffffffffffff167f4800907f19a3b1bbf16c1e8de1da0cb4c3d50a696981e2860ac91070867d2210344260405161014492919061124d565b60405180910390a2005b3373ffffffffffffffffffffffffffffffffffffffff167f4800907f19a3b1bbf16c1e8de1da0cb4c3d50a696981e2860ac91070867d2210344260405161019692919061124d565b60405180910390a2005b3480156101ac57600080fd5b506101b5610435565b6040516101c29190611276565b60405180910390f35b3480156101d757600080fd5b506101e061043d565b6040516101f094939291906112ac565b60405180910390f35b34801561020557600080fd5b50610220600480360381019061021b9190611327565b61047f565b005b34801561022e57600080fd5b50610237610619565b6040516102449190611276565b60405180910390f35b34801561025957600080fd5b50610262610620565b005b34801561027057600080fd5b50610279610687565b6040516102869190611354565b60405180910390f35b34801561029b57600080fd5b506102b660048036038101906102b191906113cd565b61069d565b005b3480156102c457600080fd5b506102cd61099b565b005b3480156102db57600080fd5b506102e46109af565b6040516102f19190611276565b60405180910390f35b34801561030657600080fd5b50610321600480360381019061031c9190611438565b6109d3565b60405161032e9190611276565b60405180910390f35b34801561034357600080fd5b5061034c6109eb565b005b34801561035a57600080fd5b50610363610a52565b6040516103709190611474565b60405180910390f35b34801561038557600080fd5b5061038e610a7b565b005b34801561039c57600080fd5b506103b760048036038101906103b291906114f4565b610bd7565b6040516103c59291906116bd565b60405180910390f35b3480156103da57600080fd5b506103f560048036038101906103f09190611438565b610dbd565b6040516104039291906116f4565b60405180910390f35b34801561041857600080fd5b50610433600480360381019061042e9190611438565b610e43565b005b600047905090565b6000806000807f00000000000000000000000000000000000000000000000000000000000000006201518047610471610687565b935093509350935090919293565b610487610ec9565b61048f610f50565b600081036104d2576040517f08c379a00000000000000000000000000000000000000000000000000000000081526004016104c99061177a565b60405180910390fd5b8047101561050c576040517f786e0a9900000000000000000000000000000000000000000000000000000000815260040160405180910390fd5b6000610516610a52565b73ffffffffffffffffffffffffffffffffffffffff1682604051610539906117cb565b60006040518083038185875af1925050503d8060008114610576576040519150601f19603f3d011682016040523d82523d6000602084013e61057b565b606091505b50509050806105b6576040517f750b219c00000000000000000000000000000000000000000000000000000000815260040160405180910390fd5b6105be610a52565b73ffffffffffffffffffffffffffffffffffffffff167ff279e6a1f5e320cca91135676d9cb6e44ca8a08c0b88342bcdb1144f6511b568834260405161060592919061124d565b60405180910390a250610616610f73565b50565b6201518081565b610628610ec9565b610630610f8e565b610638610a52565b73ffffffffffffffffffffffffffffffffffffffff167f3fc6beefa3f4115babe1a3d46940222e37b39b9ef03dc7b79f832dbcc3da6abf4260405161067d9190611276565b60405180910390a2565b60008060149054906101000a900460ff16905090565b6106a5610f50565b6106ad610ff0565b600073ffffffffffffffffffffffffffffffffffffffff168173ffffffffffffffffffffffffffffffffffffffff1603610713576040517f9c8d2cd200000000000000000000000000000000000000000000000000000000815260040160405180910390fd5b6000600160008373ffffffffffffffffffffffffffffffffffffffff1673ffffffffffffffffffffffffffffffffffffffff1681526020019081526020016000205442610760919061180f565b9050620151808110156107bd576000816201518061077e919061180f565b9050806040517f6b7744490000000000000000000000000000000000000000000000000000000081526004016107b49190611276565b60405180910390fd5b7f0000000000000000000000000000000000000000000000000000000000000000471015610817576040517fc1336f8500000000000000000000000000000000000000000000000000000000815260040160405180910390fd5b42600160008473ffffffffffffffffffffffffffffffffffffffff1673ffffffffffffffffffffffffffffffffffffffff1681526020019081526020016000208190555060008273ffffffffffffffffffffffffffffffffffffffff167f00000000000000000000000000000000000000000000000000000000000000006040516108a1906117cb565b60006040518083038185875af1925050503d80600081146108de576040519150601f19603f3d011682016040523d82523d6000602084013e6108e3565b606091505b505090508061091e576040517f90b8ec1800000000000000000000000000000000000000000000000000000000815260040160405180910390fd5b8273ffffffffffffffffffffffffffffffffffffffff167fa4acd6546ca2a791c494afafa902f3ea075e5f5381f061cc8ec601651591a59b7f00000000000000000000000000000000000000000000000000000000000000004260405161098692919061124d565b60405180910390a25050610998610f73565b50565b6109a3610ec9565b6109ad6000611031565b565b7f000000000000000000000000000000000000000000000000000000000000000081565b60016020528060005260406000206000915090505481565b6109f3610ec9565b6109fb6110f5565b610a03610a52565b73ffffffffffffffffffffffffffffffffffffffff167f6eae7d8f48015fddc9502717696ac737bec3d20c703c3958a689f8f48574718342604051610a489190611276565b60405180910390a2565b60008060009054906101000a900473ffffffffffffffffffffffffffffffffffffffff16905090565b610a83610ec9565b610a8b610f50565b600047905060008103610aca576040517f786e0a9900000000000000000000000000000000000000000000000000000000815260040160405180910390fd5b6000610ad4610a52565b73ffffffffffffffffffffffffffffffffffffffff1682604051610af7906117cb565b60006040518083038185875af1925050503d8060008114610b34576040519150601f19603f3d011682016040523d82523d6000602084013e610b39565b606091505b5050905080610b74576040517f750b219c00000000000000000000000000000000000000000000000000000000815260040160405180910390fd5b610b7c610a52565b73ffffffffffffffffffffffffffffffffffffffff167ff279e6a1f5e320cca91135676d9cb6e44ca8a08c0b88342bcdb1144f6511b5688342604051610bc392919061124d565b60405180910390a25050610bd5610f73565b565b60608060008484905090508067ffffffffffffffff811115610bfc57610bfb611843565b5b604051908082528060200260200182016040528015610c2a5781602001602082028036833780820191505090505b5092508067ffffffffffffffff811115610c4757610c46611843565b5b604051908082528060200260200182016040528015610c755781602001602082028036833780820191505090505b50915060005b81811015610db457600060016000888885818110610c9c57610c9b611872565b5b9050602002016020810190610cb19190611438565b73ffffffffffffffffffffffffffffffffffffffff1673ffffffffffffffffffffffffffffffffffffffff1681526020019081526020016000205442610cf7919061180f565b9050620151808110610d50576001858381518110610d1857610d17611872565b5b6020026020010190151590811515815250506000848381518110610d3f57610d3e611872565b5b602002602001018181525050610da6565b6000858381518110610d6557610d64611872565b5b6020026020010190151590811515815250508062015180610d86919061180f565b848381518110610d9957610d98611872565b5b6020026020010181815250505b508080600101915050610c7b565b50509250929050565b6000806000600160008573ffffffffffffffffffffffffffffffffffffffff1673ffffffffffffffffffffffffffffffffffffffff1681526020019081526020016000205442610e0d919061180f565b9050620151808110610e2757600160009250925050610e3e565b60008162015180610e38919061180f565b92509250505b915091565b610e4b610ec9565b600073ffffffffffffffffffffffffffffffffffffffff168173ffffffffffffffffffffffffffffffffffffffff1603610ebd5760006040517f1e4fbdf7000000000000000000000000000000000000000000000000000000008152600401610eb49190611474565b60405180910390fd5b610ec681611031565b50565b610ed1611158565b73ffffffffffffffffffffffffffffffffffffffff16610eef610a52565b73ffffffffffffffffffffffffffffffffffffffff1614610f4e57610f12611158565b6040517f118cdaa7000000000000000000000000000000000000000000000000000000008152600401610f459190611474565b60405180910390fd5b565b610f58611160565b6002610f6a610f656111a1565b6111cc565b60000181905550565b6001610f85610f806111a1565b6111cc565b60000181905550565b610f966111d6565b60008060146101000a81548160ff0219169083151502179055507f5db9ee0a495bf2e6ff9c91a7834c1ba4fdd244a5e8aa4e537bd38aeae4b073aa610fd9611158565b604051610fe69190611474565b60405180910390a1565b610ff8610687565b1561102f576040517fd93c066500000000000000000000000000000000000000000000000000000000815260040160405180910390fd5b565b60008060009054906101000a900473ffffffffffffffffffffffffffffffffffffffff169050816000806101000a81548173ffffffffffffffffffffffffffffffffffffffff021916908373ffffffffffffffffffffffffffffffffffffffff1602179055508173ffffffffffffffffffffffffffffffffffffffff168173ffffffffffffffffffffffffffffffffffffffff167f8be0079c531659141344cd1fd0a4f28419497f9722a3daafe3b4186f6b6457e060405160405180910390a35050565b6110fd610ff0565b6001600060146101000a81548160ff0219169083151502179055507f62e78cea01bee320cd4e420270b5ea74000d11b0c9f74754ebdbfc544b05a258611141611158565b60405161114e9190611474565b60405180910390a1565b600033905090565b611168611216565b1561119f576040517f3ee5aeb500000000000000000000000000000000000000000000000000000000815260040160405180910390fd5b565b60007f9b779b17422d0df92223018b32b4d1fa46e071723d6817e2486d003becc55f0060001b905090565b6000819050919050565b6111de610687565b611214576040517f8dfc202b00000000000000000000000000000000000000000000000000000000815260040160405180910390fd5b565b6000600261122a6112256111a1565b6111cc565b6000015414905090565b6000819050919050565b61124781611234565b82525050565b6000604082019050611262600083018561123e565b61126f602083018461123e565b9392505050565b600060208201905061128b600083018461123e565b92915050565b60008115159050919050565b6112a681611291565b82525050565b60006080820190506112c1600083018761123e565b6112ce602083018661123e565b6112db604083018561123e565b6112e8606083018461129d565b95945050505050565b600080fd5b600080fd5b61130481611234565b811461130f57600080fd5b50565b600081359050611321816112fb565b92915050565b60006020828403121561133d5761133c6112f1565b5b600061134b84828501611312565b91505092915050565b6000602082019050611369600083018461129d565b92915050565b600073ffffffffffffffffffffffffffffffffffffffff82169050919050565b600061139a8261136f565b9050919050565b6113aa8161138f565b81146113b557600080fd5b50565b6000813590506113c7816113a1565b92915050565b6000602082840312156113e3576113e26112f1565b5b60006113f1848285016113b8565b91505092915050565b60006114058261136f565b9050919050565b611415816113fa565b811461142057600080fd5b50565b6000813590506114328161140c565b92915050565b60006020828403121561144e5761144d6112f1565b5b600061145c84828501611423565b91505092915050565b61146e816113fa565b82525050565b60006020820190506114896000830184611465565b92915050565b600080fd5b600080fd5b600080fd5b60008083601f8401126114b4576114b361148f565b5b8235905067ffffffffffffffff8111156114d1576114d0611494565b5b6020830191508360208202830111156114ed576114ec611499565b5b9250929050565b6000806020838503121561150b5761150a6112f1565b5b600083013567ffffffffffffffff811115611529576115286112f6565b5b6115358582860161149e565b92509250509250929050565b600081519050919050565b600082825260208201905092915050565b6000819050602082019050919050565b61157681611291565b82525050565b6000611588838361156d565b60208301905092915050565b6000602082019050919050565b60006115ac82611541565b6115b6818561154c565b93506115c18361155d565b8060005b838110156115f25781516115d9888261157c565b97506115e483611594565b9250506001810190506115c5565b5085935050505092915050565b600081519050919050565b600082825260208201905092915050565b6000819050602082019050919050565b61163481611234565b82525050565b6000611646838361162b565b60208301905092915050565b6000602082019050919050565b600061166a826115ff565b611674818561160a565b935061167f8361161b565b8060005b838110156116b0578151611697888261163a565b97506116a283611652565b925050600181019050611683565b5085935050505092915050565b600060408201905081810360008301526116d781856115a1565b905081810360208301526116eb818461165f565b90509392505050565b6000604082019050611709600083018561129d565b611716602083018461123e565b9392505050565b600082825260208201905092915050565b7f416d6f756e74206d7573742062652067726561746572207468616e2030000000600082015250565b6000611764601d8361171d565b915061176f8261172e565b602082019050919050565b6000602082019050818103600083015261179381611757565b9050919050565b600081905092915050565b50565b60006117b560008361179a565b91506117c0826117a5565b600082019050919050565b60006117d6826117a8565b9150819050919050565b7f4e487b7100000000000000000000000000000000000000000000000000000000600052601160045260246000fd5b600061181a82611234565b915061182583611234565b925082820390508181111561183d5761183c6117e0565b5b92915050565b7f4e487b7100000000000000000000000000000000000000000000000000000000600052604160045260246000fd5b7f4e487b7100000000000000000000000000000000000000000000000000000000600052603260045260246000fdfea2646970667358221220fc04bee1fe0e45b094b91b1ee871ad5f6c7091f2ee865f04e0c5d5d61eea4d3d64736f6c634300081c0033",
        "linkReferences": {}
    },
    "methodIdentifiers": {
        "FAUCET_AMOUNT()": "76697640",
        "RATE_LIMIT_DURATION()": "32ad6268",
        "batchCheckRateLimit(address[])": "db7378ec",
        "canRequestFunds(address)": "edd3f3cf",
        "drip(address)": "67a5cd06",
        "emergencyWithdraw()": "db2e21bc",
        "getBalance()": "12065fe0",
        "getFaucetInfo()": "14da9253",
        "lastFaucetTime(address)": "7bc1f6cc",
        "owner()": "8da5cb5b",
        "pause()": "8456cb59",
        "paused()": "5c975abb",
        "renounceOwnership()": "715018a6",
        "transferOwnership(address)": "f2fde38b",
        "unpause()": "3f4ba83a",
        "withdraw(uint256)": "2e1a7d4d"
    },
    "id": 21
}